{
    "contractName": "HonorBadges",
    "abi": [
        {
            "inputs": [
                {
                    "internalType": "address",
                    "name": "lpTokenAddress",
                    "type": "address"
                }
            ],
            "stateMutability": "nonpayable",
            "type": "constructor"
        },
        {
            "anonymous": false,
            "inputs": [
                {
                    "indexed": true,
                    "internalType": "address",
                    "name": "account",
                    "type": "address"
                },
                {
                    "indexed": true,
                    "internalType": "address",
                    "name": "operator",
                    "type": "address"
                },
                {
                    "indexed": false,
                    "internalType": "bool",
                    "name": "approved",
                    "type": "bool"
                }
            ],
            "name": "ApprovalForAll",
            "type": "event"
        },
        {
            "anonymous": false,
            "inputs": [
                {
                    "indexed": true,
                    "internalType": "address",
                    "name": "sender",
                    "type": "address"
                },
                {
                    "indexed": false,
                    "internalType": "uint256",
                    "name": "badge_type",
                    "type": "uint256"
                },
                {
                    "indexed": false,
                    "internalType": "bool",
                    "name": "badge_earned",
                    "type": "bool"
                }
            ],
            "name": "Claim",
            "type": "event"
        },
        {
            "anonymous": false,
            "inputs": [
                {
                    "indexed": true,
                    "internalType": "address",
                    "name": "sender",
                    "type": "address"
                },
                {
                    "indexed": false,
                    "internalType": "uint256",
                    "name": "amount",
                    "type": "uint256"
                }
            ],
            "name": "Stake",
            "type": "event"
        },
        {
            "anonymous": false,
            "inputs": [
                {
                    "indexed": true,
                    "internalType": "address",
                    "name": "operator",
                    "type": "address"
                },
                {
                    "indexed": true,
                    "internalType": "address",
                    "name": "from",
                    "type": "address"
                },
                {
                    "indexed": true,
                    "internalType": "address",
                    "name": "to",
                    "type": "address"
                },
                {
                    "indexed": false,
                    "internalType": "uint256[]",
                    "name": "ids",
                    "type": "uint256[]"
                },
                {
                    "indexed": false,
                    "internalType": "uint256[]",
                    "name": "values",
                    "type": "uint256[]"
                }
            ],
            "name": "TransferBatch",
            "type": "event"
        },
        {
            "anonymous": false,
            "inputs": [
                {
                    "indexed": true,
                    "internalType": "address",
                    "name": "operator",
                    "type": "address"
                },
                {
                    "indexed": true,
                    "internalType": "address",
                    "name": "from",
                    "type": "address"
                },
                {
                    "indexed": true,
                    "internalType": "address",
                    "name": "to",
                    "type": "address"
                },
                {
                    "indexed": false,
                    "internalType": "uint256",
                    "name": "id",
                    "type": "uint256"
                },
                {
                    "indexed": false,
                    "internalType": "uint256",
                    "name": "value",
                    "type": "uint256"
                }
            ],
            "name": "TransferSingle",
            "type": "event"
        },
        {
            "anonymous": false,
            "inputs": [
                {
                    "indexed": false,
                    "internalType": "string",
                    "name": "value",
                    "type": "string"
                },
                {
                    "indexed": true,
                    "internalType": "uint256",
                    "name": "id",
                    "type": "uint256"
                }
            ],
            "name": "URI",
            "type": "event"
        },
        {
            "anonymous": false,
            "inputs": [
                {
                    "indexed": true,
                    "internalType": "address",
                    "name": "sender",
                    "type": "address"
                },
                {
                    "indexed": false,
                    "internalType": "uint256",
                    "name": "amount",
                    "type": "uint256"
                }
            ],
            "name": "Withdraw",
            "type": "event"
        },
        {
            "inputs": [
                {
                    "internalType": "address",
                    "name": "account",
                    "type": "address"
                },
                {
                    "internalType": "uint256",
                    "name": "id",
                    "type": "uint256"
                }
            ],
            "name": "balanceOf",
            "outputs": [
                {
                    "internalType": "uint256",
                    "name": "",
                    "type": "uint256"
                }
            ],
            "stateMutability": "view",
            "type": "function"
        },
        {
            "inputs": [
                {
                    "internalType": "address[]",
                    "name": "accounts",
                    "type": "address[]"
                },
                {
                    "internalType": "uint256[]",
                    "name": "ids",
                    "type": "uint256[]"
                }
            ],
            "name": "balanceOfBatch",
            "outputs": [
                {
                    "internalType": "uint256[]",
                    "name": "",
                    "type": "uint256[]"
                }
            ],
            "stateMutability": "view",
            "type": "function"
        },
        {
            "inputs": [],
            "name": "claim",
            "outputs": [],
            "stateMutability": "nonpayable",
            "type": "function"
        },
        {
            "inputs": [
                {
                    "internalType": "address",
                    "name": "account",
                    "type": "address"
                }
            ],
            "name": "getBadgeProgress",
            "outputs": [
                {
                    "internalType": "uint256",
                    "name": "badgeProgress",
                    "type": "uint256"
                }
            ],
            "stateMutability": "view",
            "type": "function"
        },
        {
            "inputs": [
                {
                    "internalType": "address",
                    "name": "account",
                    "type": "address"
                }
            ],
            "name": "getStakeBalance",
            "outputs": [
                {
                    "internalType": "uint256",
                    "name": "_amount",
                    "type": "uint256"
                }
            ],
            "stateMutability": "view",
            "type": "function"
        },
        {
            "inputs": [
                {
                    "internalType": "address",
                    "name": "account",
                    "type": "address"
                },
                {
                    "internalType": "address",
                    "name": "operator",
                    "type": "address"
                }
            ],
            "name": "isApprovedForAll",
            "outputs": [
                {
                    "internalType": "bool",
                    "name": "",
                    "type": "bool"
                }
            ],
            "stateMutability": "view",
            "type": "function"
        },
        {
            "inputs": [
                {
                    "internalType": "address",
                    "name": "",
                    "type": "address"
                },
                {
                    "internalType": "uint256",
                    "name": "",
                    "type": "uint256"
                }
            ],
            "name": "lpBalanceTimestamps",
            "outputs": [
                {
                    "internalType": "uint256",
                    "name": "",
                    "type": "uint256"
                }
            ],
            "stateMutability": "view",
            "type": "function"
        },
        {
            "inputs": [
                {
                    "internalType": "address",
                    "name": "",
                    "type": "address"
                },
                {
                    "internalType": "uint256",
                    "name": "",
                    "type": "uint256"
                }
            ],
            "name": "lpBalances",
            "outputs": [
                {
                    "internalType": "uint256",
                    "name": "",
                    "type": "uint256"
                }
            ],
            "stateMutability": "view",
            "type": "function"
        },
        {
            "inputs": [],
            "name": "lpToken",
            "outputs": [
                {
                    "internalType": "contract LpToken",
                    "name": "",
                    "type": "address"
                }
            ],
            "stateMutability": "view",
            "type": "function"
        },
        {
            "inputs": [
                {
                    "internalType": "address",
                    "name": "from",
                    "type": "address"
                },
                {
                    "internalType": "address",
                    "name": "to",
                    "type": "address"
                },
                {
                    "internalType": "uint256[]",
                    "name": "ids",
                    "type": "uint256[]"
                },
                {
                    "internalType": "uint256[]",
                    "name": "amounts",
                    "type": "uint256[]"
                },
                {
                    "internalType": "bytes",
                    "name": "data",
                    "type": "bytes"
                }
            ],
            "name": "safeBatchTransferFrom",
            "outputs": [],
            "stateMutability": "nonpayable",
            "type": "function"
        },
        {
            "inputs": [
                {
                    "internalType": "address",
                    "name": "from",
                    "type": "address"
                },
                {
                    "internalType": "address",
                    "name": "to",
                    "type": "address"
                },
                {
                    "internalType": "uint256",
                    "name": "id",
                    "type": "uint256"
                },
                {
                    "internalType": "uint256",
                    "name": "amount",
                    "type": "uint256"
                },
                {
                    "internalType": "bytes",
                    "name": "data",
                    "type": "bytes"
                }
            ],
            "name": "safeTransferFrom",
            "outputs": [],
            "stateMutability": "nonpayable",
            "type": "function"
        },
        {
            "inputs": [
                {
                    "internalType": "address",
                    "name": "operator",
                    "type": "address"
                },
                {
                    "internalType": "bool",
                    "name": "approved",
                    "type": "bool"
                }
            ],
            "name": "setApprovalForAll",
            "outputs": [],
            "stateMutability": "nonpayable",
            "type": "function"
        },
        {
            "inputs": [
                {
                    "internalType": "uint256",
                    "name": "amount",
                    "type": "uint256"
                }
            ],
            "name": "stake",
            "outputs": [],
            "stateMutability": "nonpayable",
            "type": "function"
        },
        {
            "inputs": [
                {
                    "internalType": "bytes4",
                    "name": "interfaceId",
                    "type": "bytes4"
                }
            ],
            "name": "supportsInterface",
            "outputs": [
                {
                    "internalType": "bool",
                    "name": "",
                    "type": "bool"
                }
            ],
            "stateMutability": "view",
            "type": "function"
        },
        {
            "inputs": [
                {
                    "internalType": "uint256",
                    "name": "",
                    "type": "uint256"
                }
            ],
            "name": "uri",
            "outputs": [
                {
                    "internalType": "string",
                    "name": "",
                    "type": "string"
                }
            ],
            "stateMutability": "view",
            "type": "function"
        },
        {
            "inputs": [
                {
                    "internalType": "uint256",
                    "name": "amount",
                    "type": "uint256"
                }
            ],
            "name": "withdraw",
            "outputs": [],
            "stateMutability": "nonpayable",
            "type": "function"
        }
    ],
    "bytecode": "60806040523480156200001157600080fd5b506040516200227a3803806200227a83398101604081905262000034916200013f565b6040518060600160405280603c81526020016200223e603c9139620000598162000080565b50600380546001600160a01b0319166001600160a01b0392909216919091179055620001ae565b80516200009590600290602084019062000099565b5050565b828054620000a79062000171565b90600052602060002090601f016020900481019282620000cb576000855562000116565b82601f10620000e657805160ff191683800117855562000116565b8280016001018555821562000116579182015b8281111562000116578251825591602001919060010190620000f9565b506200012492915062000128565b5090565b5b8082111562000124576000815560010162000129565b6000602082840312156200015257600080fd5b81516001600160a01b03811681146200016a57600080fd5b9392505050565b600181811c908216806200018657607f821691505b60208210811415620001a857634e487b7160e01b600052602260045260246000fd5b50919050565b61208080620001be6000396000f3fe608060405234801561001057600080fd5b50600436106100ff5760003560e01c80634e71d92d11610097578063e985e9c511610066578063e985e9c514610234578063ef86977314610270578063f242432a14610283578063ff0ef2351461029157600080fd5b80634e71d92d146101db5780635fcbd285146101e3578063a22cb4651461020e578063a694fc3a1461022157600080fd5b8063286a1d82116100d3578063286a1d82146101805780632e1a7d4d146101935780632eb2c2d6146101a85780634e1273f4146101bb57600080fd5b8062fdd58e1461010457806301ffc9a71461012a5780630e89341c1461014d5780632189e7c21461016d575b600080fd5b610117610112366004611849565b6102a4565b6040519081526020015b60405180910390f35b61013d610138366004611889565b61033b565b6040519015158152602001610121565b61016061015b3660046118a6565b61038d565b604051610121919061190c565b61011761017b366004611849565b610421565b61011761018e366004611849565b610452565b6101a66101a13660046118a6565b61046e565b005b6101a66101b6366004611a6b565b61065a565b6101ce6101c9366004611b15565b6106be565b6040516101219190611c1b565b6101a66107e8565b6003546101f6906001600160a01b031681565b6040516001600160a01b039091168152602001610121565b6101a661021c366004611c3c565b610c1d565b6101a661022f3660046118a6565b610c2c565b61013d610242366004611c73565b6001600160a01b03918216600090815260016020908152604080832093909416825291909152205460ff1690565b61011761027e366004611ca6565b610e22565b6101a66101b6366004611cc1565b61011761029f366004611ca6565b610e6a565b60006001600160a01b0383166103155760405162461bcd60e51b815260206004820152602b60248201527f455243313135353a2062616c616e636520717565727920666f7220746865207a60448201526a65726f206164647265737360a81b60648201526084015b60405180910390fd5b506000908152602081815260408083206001600160a01b03949094168352929052205490565b60006001600160e01b03198216636cdb3d1360e11b148061036c57506001600160e01b031982166303a24d0760e21b145b8061038757506301ffc9a760e01b6001600160e01b03198316145b92915050565b60606002805461039c90611d26565b80601f01602080910402602001604051908101604052809291908181526020018280546103c890611d26565b80156104155780601f106103ea57610100808354040283529160200191610415565b820191906000526020600020905b8154815290600101906020018083116103f857829003601f168201915b50505050509050919050565b6005602052816000526040600020818154811061043d57600080fd5b90600052602060002001600091509150505481565b6004602052816000526040600020818154811061043d57600080fd5b336000908152600460205260409020546104de5760405162461bcd60e51b815260206004820152602b60248201527f4e6f206c7020746f6b656e732068617665206265656e207374616b656420627960448201526a1036b9b39739b2b73232b960a91b606482015260840161030c565b60006104e933610e22565b9050818110156105575760405162461bcd60e51b815260206004820152603360248201527f4e6f7420656e6f756768204c5020746f6b656e73207374616b656420746f20776044820152721a5d1a191c985dc81d1a185d08185b5bdd5b9d606a1b606482015260840161030c565b3360009081526004602052604090206105708383611d77565b8154600180820184556000938452602080852090920192909255338084526005825260408085208054948501815585529190932042920191909155600354905163a9059cbb60e01b81526004810192909252602482018490526001600160a01b03169063a9059cbb906044016020604051808303816000875af11580156105fb573d6000803e3d6000fd5b505050506040513d601f19601f8201168201806040525081019061061f9190611d8e565b5060405182815233907f884edad9ce6fa2440d8a54cc123490eb96d2768479d49ff9c7366125a9424364906020015b60405180910390a25050565b60405162461bcd60e51b815260206004820152602c60248201527f5472616e73666572732068617665206265656e2064697361626c656420666f7260448201526b20486f6e6f7242616467657360a01b606482015260840161030c565b5050505050565b606081518351146107235760405162461bcd60e51b815260206004820152602960248201527f455243313135353a206163636f756e747320616e6420696473206c656e677468604482015268040dad2e6dac2e8c6d60bb1b606482015260840161030c565b6000835167ffffffffffffffff81111561073f5761073f61191f565b604051908082528060200260200182016040528015610768578160200160208202803683370190505b50905060005b84518110156107e0576107b385828151811061078c5761078c611dab565b60200260200101518583815181106107a6576107a6611dab565b60200260200101516102a4565b8282815181106107c5576107c5611dab565b60209081029190910101526107d981611dc1565b905061076e565b509392505050565b3360009081526004602052604090205461083d5760405162461bcd60e51b81526020600482015260166024820152754e6f207374616b6520686173206265656e206d61646560501b604482015260640161030c565b600061084833610e6a565b90506103e881101580156108bd5750604051627eeac760e11b815233600482015260036024820152309062fdd58e90604401602060405180830381865afa158015610897573d6000803e3d6000fd5b505050506040513d601f19601f820116820180604052508101906108bb9190611ddc565b155b15610a0357604051627eeac760e11b815233600482015260026024820152309062fdd58e90604401602060405180830381865afa158015610902573d6000803e3d6000fd5b505050506040513d601f19601f820116820180604052508101906109269190611ddc565b600114156109405761093b336002600161124a565b6109b8565b604051627eeac760e11b815233600482015260016024820152309062fdd58e90604401602060405180830381865afa158015610980573d6000803e3d6000fd5b505050506040513d601f19601f820116820180604052508101906109a49190611ddc565b600114156109b8576109b83360018061124a565b6109d53360036001604051806020016040528060008152506113c4565b604080516003815260016020820152339160008051602061202b83398151915291015b60405180910390a250565b6101f48110158015610a765750604051627eeac760e11b815233600482015260026024820152309062fdd58e90604401602060405180830381865afa158015610a50573d6000803e3d6000fd5b505050506040513d601f19601f82011682018060405250810190610a749190611ddc565b155b15610b3757604051627eeac760e11b815233600482015260016024820152309062fdd58e90604401602060405180830381865afa158015610abb573d6000803e3d6000fd5b505050506040513d601f19601f82011682018060405250810190610adf9190611ddc565b60011415610af357610af33360018061124a565b610b103360026001604051806020016040528060008152506113c4565b604080516002815260016020820152339160008051602061202b83398151915291016109f8565b60648110158015610ba95750604051627eeac760e11b815233600482015260016024820152309062fdd58e90604401602060405180830381865afa158015610b83573d6000803e3d6000fd5b505050506040513d601f19601f82011682018060405250810190610ba79190611ddc565b155b15610bf057610bca33600180604051806020016040528060008152506113c4565b6040805160018082526020820152339160008051602061202b83398151915291016109f8565b6040805160008082526020820152339160008051602061202b833981519152910160405180910390a25b50565b610c283383836114ce565b5050565b6003546040516370a0823160e01b815233600482015282916001600160a01b0316906370a0823190602401602060405180830381865afa158015610c74573d6000803e3d6000fd5b505050506040513d601f19601f82011682018060405250810190610c989190611ddc565b1015610cfe5760405162461bcd60e51b815260206004820152602f60248201527f4e6f7420656e6f756768204c5020746f6b656e73206f776e656420746f20737460448201526e185ad9481d1a185d08185b5bdd5b9d608a1b606482015260840161030c565b33600090815260046020526040812054600111610d2157610d1e33610e22565b90505b336000908152600460205260409020610d3a8383611df5565b815460018082018455600093845260208085209092019290925533808452600582526040808520805494850181558552919093204292019190915560035490516323b872dd60e01b81526004810192909252306024830152604482018490526001600160a01b0316906323b872dd906064016020604051808303816000875af1158015610dcb573d6000803e3d6000fd5b505050506040513d601f19601f82011682018060405250810190610def9190611d8e565b5060405182815233907febedb8b3c678666e7f36970bc8f57abf6d8fa2e828c0da91ea5b75bf68ed101a9060200161064e565b6001600160a01b03811660009081526004602052604081208054610e4890600190611d77565b81548110610e5857610e58611dab565b90600052602060002001549050919050565b3360009081526004602052604081205481906001811415610f1a576001600160a01b03841660009081526005602052604081208054610ecf91908390610eb257610eb2611dab565b906000526020600020015442610ec89190611d77565b603c6115b8565b6001600160a01b038616600090815260046020526040812080549293508392909190610efd57610efd611dab565b9060005260206000200154610f129190611e0d565b9250506110af565b60018111156110af5760005b818110156110ad576000610f3b600184611d77565b821415610fc6576001600160a01b03861660009081526005602052604090208054610f71919084908110610eb257610eb2611dab565b6001600160a01b03871660009081526004602052604090208054919250829184908110610fa057610fa0611dab565b9060005260206000200154610fb59190611e0d565b610fbf9085611df5565b935061109a565b6001600160a01b03861660009081526005602052604090208054611049919084908110610ff557610ff5611dab565b60009182526020808320909101546001600160a01b038a16835260059091526040909120611024856001611df5565b8154811061103457611034611dab565b9060005260206000200154610ec89190611d77565b6001600160a01b0387166000908152600460205260409020805491925082918490811061107857611078611dab565b906000526020600020015461108d9190611e0d565b6110979085611df5565b93505b50806110a581611dc1565b915050610f26565b505b5092915050565b84518110156111dc5760008582815181106110d3576110d3611dab565b6020026020010151905060008583815181106110f1576110f1611dab565b602090810291909101810151600084815280835260408082206001600160a01b038e1683529093529190912054909150818110156111845760405162461bcd60e51b815260206004820152602a60248201527f455243313135353a20696e73756666696369656e742062616c616e636520666f60448201526939103a3930b739b332b960b11b606482015260840161030c565b6000838152602081815260408083206001600160a01b038e8116855292528083208585039055908b168252812080548492906111c1908490611df5565b92505081905550505050806111d590611dc1565b90506110b6565b50846001600160a01b0316866001600160a01b0316826001600160a01b03167f4a39dc06d4c0dbc64b70af90fd698a233a518aa5d07e595d983b8c0526c8f7fb878760405161122c929190611e2c565b60405180910390a46112428187878787876115cb565b505050505050565b6001600160a01b0383166112ac5760405162461bcd60e51b815260206004820152602360248201527f455243313135353a206275726e2066726f6d20746865207a65726f206164647260448201526265737360e81b606482015260840161030c565b336112dc818560006112bd87611727565b6112c687611727565b5050604080516020810190915260009052505050565b6000838152602081815260408083206001600160a01b0388168452909152902054828110156113595760405162461bcd60e51b8152602060048201526024808201527f455243313135353a206275726e20616d6f756e7420657863656564732062616c604482015263616e636560e01b606482015260840161030c565b6000848152602081815260408083206001600160a01b03898116808652918452828520888703905582518981529384018890529092908616917fc3d58168c5ae7397731d063d5bbf3d657854427343f4c083240f7aacaa2d0f62910160405180910390a45050505050565b6001600160a01b0384166114245760405162461bcd60e51b815260206004820152602160248201527f455243313135353a206d696e7420746f20746865207a65726f206164647265736044820152607360f81b606482015260840161030c565b3361143e8160008761143588611727565b6106b788611727565b6000848152602081815260408083206001600160a01b03891684529091528120805485929061146e908490611df5565b909155505060408051858152602081018590526001600160a01b0380881692600092918516917fc3d58168c5ae7397731d063d5bbf3d657854427343f4c083240f7aacaa2d0f62910160405180910390a46106b781600087878787611772565b816001600160a01b0316836001600160a01b031614156115425760405162461bcd60e51b815260206004820152602960248201527f455243313135353a2073657474696e6720617070726f76616c20737461747573604482015268103337b91039b2b63360b91b606482015260840161030c565b6001600160a01b03838116600081815260016020908152604080832094871680845294825291829020805460ff191686151590811790915591519182527f17307eab39ab6107e8899845ad3d59bd9653f200f220920489ca2b5937696c31910160405180910390a3505050565b50505050505050565b60006115c48284611e5a565b9392505050565b6001600160a01b0384163b156112425760405163bc197c8160e01b81526001600160a01b0385169063bc197c819061160f9089908990889088908890600401611e7c565b6020604051808303816000875af192505050801561164a575060408051601f3d908101601f1916820190925261164791810190611eda565b60015b6116f757611656611ef7565b806308c379a01415611690575061166b611f13565b806116765750611692565b8060405162461bcd60e51b815260040161030c919061190c565b505b60405162461bcd60e51b815260206004820152603460248201527f455243313135353a207472616e7366657220746f206e6f6e20455243313135356044820152732932b1b2b4bb32b91034b6b83632b6b2b73a32b960611b606482015260840161030c565b6001600160e01b0319811663bc197c8160e01b146115af5760405162461bcd60e51b815260040161030c90611f9d565b6040805160018082528183019092526060916000919060208083019080368337019050509050828160008151811061176157611761611dab565b602090810291909101015292915050565b6001600160a01b0384163b156112425760405163f23a6e6160e01b81526001600160a01b0385169063f23a6e61906117b69089908990889088908890600401611fe5565b6020604051808303816000875af19250505080156117f1575060408051601f3d908101601f191682019092526117ee91810190611eda565b60015b6117fd57611656611ef7565b6001600160e01b0319811663f23a6e6160e01b146115af5760405162461bcd60e51b815260040161030c90611f9d565b80356001600160a01b038116811461184457600080fd5b919050565b6000806040838503121561185c57600080fd5b6118658361182d565b946020939093013593505050565b6001600160e01b031981168114610c1a57600080fd5b60006020828403121561189b57600080fd5b81356115c481611873565b6000602082840312156118b857600080fd5b5035919050565b6000815180845260005b818110156118e5576020818501810151868301820152016118c9565b818111156118f7576000602083870101525b50601f01601f19169290920160200192915050565b6020815260006115c460208301846118bf565b634e487b7160e01b600052604160045260246000fd5b601f8201601f1916810167ffffffffffffffff8111828210171561195b5761195b61191f565b6040525050565b600067ffffffffffffffff82111561197c5761197c61191f565b5060051b60200190565b600082601f83011261199757600080fd5b813560206119a482611962565b6040516119b18282611935565b83815260059390931b85018201928281019150868411156119d157600080fd5b8286015b848110156119ec57803583529183019183016119d5565b509695505050505050565b600082601f830112611a0857600080fd5b813567ffffffffffffffff811115611a2257611a2261191f565b604051611a39601f8301601f191660200182611935565b818152846020838601011115611a4e57600080fd5b816020850160208301376000918101602001919091529392505050565b600080600080600060a08688031215611a8357600080fd5b611a8c8661182d565b9450611a9a6020870161182d565b9350604086013567ffffffffffffffff80821115611ab757600080fd5b611ac389838a01611986565b94506060880135915080821115611ad957600080fd5b611ae589838a01611986565b93506080880135915080821115611afb57600080fd5b50611b08888289016119f7565b9150509295509295909350565b60008060408385031215611b2857600080fd5b823567ffffffffffffffff80821115611b4057600080fd5b818501915085601f830112611b5457600080fd5b81356020611b6182611962565b604051611b6e8282611935565b83815260059390931b8501820192828101915089841115611b8e57600080fd5b948201945b83861015611bb357611ba48661182d565b82529482019490820190611b93565b96505086013592505080821115611bc957600080fd5b50611bd685828601611986565b9150509250929050565b600081518084526020808501945080840160005b83811015611c1057815187529582019590820190600101611bf4565b509495945050505050565b6020815260006115c46020830184611be0565b8015158114610c1a57600080fd5b60008060408385031215611c4f57600080fd5b611c588361182d565b91506020830135611c6881611c2e565b809150509250929050565b60008060408385031215611c8657600080fd5b611c8f8361182d565b9150611c9d6020840161182d565b90509250929050565b600060208284031215611cb857600080fd5b6115c48261182d565b600080600080600060a08688031215611cd957600080fd5b611ce28661182d565b9450611cf06020870161182d565b93506040860135925060608601359150608086013567ffffffffffffffff811115611d1a57600080fd5b611b08888289016119f7565b600181811c90821680611d3a57607f821691505b60208210811415611d5b57634e487b7160e01b600052602260045260246000fd5b50919050565b634e487b7160e01b600052601160045260246000fd5b600082821015611d8957611d89611d61565b500390565b600060208284031215611da057600080fd5b81516115c481611c2e565b634e487b7160e01b600052603260045260246000fd5b6000600019821415611dd557611dd5611d61565b5060010190565b600060208284031215611dee57600080fd5b5051919050565b60008219821115611e0857611e08611d61565b500190565b6000816000190483118215151615611e2757611e27611d61565b500290565b604081526000611e3f6040830185611be0565b8281036020840152611e518185611be0565b95945050505050565b600082611e7757634e487b7160e01b600052601260045260246000fd5b500490565b6001600160a01b0386811682528516602082015260a060408201819052600090611ea890830186611be0565b8281036060840152611eba8186611be0565b90508281036080840152611ece81856118bf565b98975050505050505050565b600060208284031215611eec57600080fd5b81516115c481611873565b600060033d1115611f105760046000803e5060005160e01c5b90565b600060443d1015611f215790565b6040516003193d81016004833e81513d67ffffffffffffffff8160248401118184111715611f5157505050505090565b8285019150815181811115611f695750505050505090565b843d8701016020828501011115611f835750505050505090565b611f9260208286010187611935565b509095945050505050565b60208082526028908201527f455243313135353a204552433131353552656365697665722072656a656374656040820152676420746f6b656e7360c01b606082015260800190565b6001600160a01b03868116825285166020820152604081018490526060810183905260a06080820181905260009061201f908301846118bf565b97965050505050505056fea2c38e2d2fb7e3e1912d937fd1ca11ed6d51864dee4cfa7a7bf02becd7acf092a26469706673582212206facbc42555f1de6ae4bf7f53a8e67238ed0ec94f9a79c0e78d75133203cc92564736f6c634300080c0033687474703a2f2f6163726f2e61692f6c69717569646974792d70726f76696465722d6261646765732f6170692f746f6b656e2f7b69647d2e6a736f6e",
    "sourcePath": "/Users/konradrauscher/Development/liquidity-providor-badges/packages/hardhat/contracts/HonorBadges.sol",
    "compiler": {
        "name": "solc",
        "version": "0.8.12+commit.f00d7308"
    },
    "functionHashes": {
        "balanceOf(address,uint256)": "00fdd58e",
        "balanceOfBatch(address[],uint256[])": "4e1273f4",
        "claim()": "4e71d92d",
        "getBadgeProgress(address)": "ff0ef235",
        "getStakeBalance(address)": "ef869773",
        "isApprovedForAll(address,address)": "e985e9c5",
        "lpBalanceTimestamps(address,uint256)": "2189e7c2",
        "lpBalances(address,uint256)": "286a1d82",
        "lpToken()": "5fcbd285",
        "safeBatchTransferFrom(address,address,uint256[],uint256[],bytes)": "2eb2c2d6",
        "safeTransferFrom(address,address,uint256,uint256,bytes)": "f242432a",
        "setApprovalForAll(address,bool)": "a22cb465",
        "stake(uint256)": "a694fc3a",
        "supportsInterface(bytes4)": "01ffc9a7",
        "uri(uint256)": "0e89341c",
        "withdraw(uint256)": "2e1a7d4d"
    },
    "gasEstimates": {
        "creation": {
            "codeDepositCost": "1664000",
            "executionCost": "infinite",
            "totalCost": "infinite"
        },
        "external": {
            "balanceOf(address,uint256)": "2695",
            "balanceOfBatch(address[],uint256[])": "infinite",
            "claim()": "infinite",
            "getBadgeProgress(address)": "infinite",
            "getStakeBalance(address)": "6945",
            "isApprovedForAll(address,address)": "infinite",
            "lpBalanceTimestamps(address,uint256)": "4823",
            "lpBalances(address,uint256)": "4756",
            "lpToken()": "2382",
            "safeBatchTransferFrom(address,address,uint256[],uint256[],bytes)": "infinite",
            "safeTransferFrom(address,address,uint256,uint256,bytes)": "infinite",
            "setApprovalForAll(address,bool)": "26782",
            "stake(uint256)": "infinite",
            "supportsInterface(bytes4)": "567",
            "uri(uint256)": "infinite",
            "withdraw(uint256)": "infinite"
        }
    }
}